:020000040800F2
:10000000680600202902000851040008E5030008E2
:100010004D040008E3020008290800080000000061
:100020000000000000000000000000006906000859
:10003000E7020008000000005304000881070008E0
:10004000430200084302000843020008430200087C
:10005000430200084302000843020008430200086C
:10006000430200084302000843020008430200085C
:10007000430200084302000843020008430200084C
:10008000430200084302000843020008430200083C
:10009000430200084302000843020008430200082C
:1000A000430200084302000843020008430200081C
:1000B000430200084302000843020008430200080C
:1000C00043020008430200084302000843020008FC
:1000D00043020008430200084302000843020008EC
:1000E00043020008430200084302000843020008DC
:1000F00043020008430200084302000843020008CC
:1001000043020008430200084302000843020008BB
:1001100043020008430200084302000843020008AB
:10012000430200084302000843020008430200089B
:10013000430200084302000843020008430200088B
:10014000430200084302000843020008430200087B
:10015000430200084302000843020008430200086B
:10016000430200084302000843020008430200085B
:10017000430200084302000843020008430200084B
:10018000430200084302000800F002F800F03CF8C7
:100190000AA090E8000C82448344AAF10107DA45E2
:1001A00001D100F031F8AFF2090EBAE80F0013F0F8
:1001B000010F18BFFB1A43F001031847A006000007
:1001C000C0060000103A24BF78C878C1FAD8520798
:1001D00024BF30C830C144BF04680C6070470000C1
:1001E0000023002400250026103A28BF78C1FBD840
:1001F000520728BF30C148BF0B6070471FB500F0E1
:1002000028FB1FBD10B510BD00F031F81146FFF7F7
:10021000F5FF00F00BFB00F04FF803B4FFF7F2FF1F
:1002200003BC00F057F80000094880470948004720
:10023000FEE7FEE7FEE7FEE7FEE7FEE7FEE7FEE796
:10024000FEE7FEE704480549054A064B70470000F3
:100250008507000889010008680000206806002062
:10026000680200206802002070477047704775469A
:1002700000F02CF8AE4605006946534620F0070012
:10028000854618B020B5FFF7DDFFBDE820404FF0F0
:1002900000064FF000074FF000084FF0000B21F070
:1002A0000701AC46ACE8C009ACE8C009ACE8C0093D
:1002B000ACE8C0098D46704710B50446AFF3008026
:1002C0002046BDE81040FFF7A8BF00000048704777
:1002D0000800002001491820ABBEFEE726000200FE
:1002E000704700BFFEE7704710B545F2082241F2A3
:1002F00088310D4800F01EF8A8B100200A49088096
:100300000A480088012804D14102094800F068F831
:1003100004E04FF40071064800F060F803480088DC
:10032000C0430249088010BD0400002002000020E4
:100330000014024010B5034600201C8814441C80A1
:100340001C888C4201DB1980012010BDF0B50A46E3
:1003500000210023002400BF3DE0012505FA01F340
:10036000156805EA03049C4234D105684F00032652
:10037000BE40B543056015794E00B540066835436B
:1003800005601579012D02D01579022D16D18568E9
:100390004F000326BE40B543856055794E00B540F9
:1003A000866835438560456801268E40B5434560C3
:1003B000456896798E40B6B235434560C5684F00B2
:1003C0000326BE40B543C560D5794E00B540C6682A
:1003D0003543C560491C1029BFD3F0BD4183704728
:1003E0000183704700BFFEE710B56FF0040000F016
:1003F000B3F96FF07F404FF0E02148610020886141
:100400000846006940F00100086110BD1CB50121DB
:10041000202000F01FF801208DF804004002009019
:1004200003208DF8050000208DF8060001208DF8CE
:10043000070069460448FFF789FF4FF4007102483E
:10044000FFF7CEFF1CBD00000014024000BFFEE716
:100450007047704729B1064A12680243044B1A607C
:1004600004E0034A12688243014B1A60704700009F
:10047000303802401448006840F00100124908601A
:1004800000201149083108600F4800680F490840F2
:100490000D4908600E48091D08600E480A4984315C
:1004A00008600B481038091D08600748006820F4F0
:1004B000802005490860002003490C31086002498A
:1004C0008C3108607047000000380240FFFFF6EAF8
:1004D000103000240030002010B501460022002317
:1004E00000204A11012A02D10A4C236808E0022A9E
:1004F00003D1084C7034236802E0064C743423683E
:1005000001F01F02012494401C400CB1012000E0C6
:10051000002010BD003802400248006800F00C00C6
:10052000704700000838024001460020034A106866
:1005300020F0F000084310607047000008380240C7
:100540000021024A117011460870704702380240BB
:10055000F8B504460D4616461F46FFF78BFF0120EF
:10056000FFF7EEFF00F064F8012823D10020FFF729
:10057000DBFF4FF4805000F02BF84FF4A05000F058
:100580001BF833462A4621464FF48000009700F0BE
:1005900031F8012000F028F800BF3920FFF79CFF58
:1005A0000028FAD0022000F037F800BFFFF7B4FFB0
:1005B0000828FBD1F8BD000001460020034A10685E
:1005C00020F4E050084310607047000008380240F3
:1005D00001460020034A106820F4604040EAC10050
:1005E00010607047083802400149086670470000F3
:1005F0000000474270B5049C41EA82150126C6EB13
:10060000530645EA0645054345EA0465014E356053
:1006100070BD00000438024001460020034A106803
:1006200020F00300084310607047000008380240C3
:1006300038B5002000900024002500BF3120FFF7CE
:100640004BFF05460098401C00900098B0F5A04F65
:1006500001D0002DF2D03120FFF73EFF08B1012478
:1006600000E00024204638BD704700000CB5002093
:10067000019000903448006840F4803032490860AE
:1006800000BF3148006800F4003000900198401C21
:100690000190009818B90198B0F5A04FF1D12A48FF
:1006A000006800F4003010B10120009001E000204B
:1006B00000900098012846D123484030006840F05F
:1006C00080502149403108602048006840F4404093
:1006D0001E4908601C48083000681B490831086042
:1006E0000846006840F4004008600846006840F48E
:1006F000A05008601648091F0860081F006840F0F5
:100700008070091F086000BF0F48006800F000708B
:100710000028F9D040F205700E4908600A480830F8
:10072000006820F0030008490831086008460068A6
:1007300040F00200086000BF03480830006800F085
:100740000C000828F8D10CBD0038024000700040B1
:1007500008544007003C0240042808D14FF0E02133
:10076000096941F004014FF0E022116107E04FF008
:10077000E021096921F004014FF0E0221161704786
:100780007047704710B51548006840F47000134971
:1007900008601348006840F001001149086000201B
:1007A0000F49083108600E4800680E4908400C499E
:1007B00008600D48091D0860081F006820F48020AB
:1007C000091F0860002006490C310860FFF74EFF42
:1007D0004FF0006001498039086010BD88ED00E0ED
:1007E00000380240FFFFF6FE1030002410B5FFF77E
:1007F0007BFD0C48007800F0030060B109480078E8
:1008000000F00300012806D00648007800F003003D
:10081000022800D000BF03480088401C014908801E
:1008200010BD00000000002000BFFEE707230222E9
:100830004FF4A8710820FFF78BFEFFF7D5FDFFF7F7
:10084000E5FD05E045F20820FFF79BFFFFF7CEFF2F
:10085000F8E74FF04070E1EE100A70477C0800089E
:100860000000002008000000C401000884080008FF
:100870000800002060060000E00100080000010000
:040880000000000074
:040000050800018965
:00000001FF
